{"abi":[{"type":"constructor","inputs":[{"name":"_usdc","type":"address","internalType":"address"}],"stateMutability":"nonpayable"},{"type":"fallback","stateMutability":"payable"},{"type":"receive","stateMutability":"payable"},{"type":"function","name":"ASSET_COMMODITY","inputs":[],"outputs":[{"name":"","type":"uint8","internalType":"uint8"}],"stateMutability":"view"},{"type":"function","name":"ASSET_ETF","inputs":[],"outputs":[{"name":"","type":"uint8","internalType":"uint8"}],"stateMutability":"view"},{"type":"function","name":"ASSET_FX","inputs":[],"outputs":[{"name":"","type":"uint8","internalType":"uint8"}],"stateMutability":"view"},{"type":"function","name":"MAX_AGENTS_PER_USER","inputs":[],"outputs":[{"name":"","type":"uint256","internalType":"uint256"}],"stateMutability":"view"},{"type":"function","name":"MAX_POSITIONS_PER_MARKET","inputs":[],"outputs":[{"name":"","type":"uint256","internalType":"uint256"}],"stateMutability":"view"},{"type":"function","name":"PERSONALITY_AGGRESSIVE","inputs":[],"outputs":[{"name":"","type":"uint8","internalType":"uint8"}],"stateMutability":"view"},{"type":"function","name":"PERSONALITY_BALANCED","inputs":[],"outputs":[{"name":"","type":"uint8","internalType":"uint8"}],"stateMutability":"view"},{"type":"function","name":"PERSONALITY_CONSERVATIVE","inputs":[],"outputs":[{"name":"","type":"uint8","internalType":"uint8"}],"stateMutability":"view"},{"type":"function","name":"PERSONALITY_CONTRARIAN","inputs":[],"outputs":[{"name":"","type":"uint8","internalType":"uint8"}],"stateMutability":"view"},{"type":"function","name":"REFUND_GRACE_PERIOD","inputs":[],"outputs":[{"name":"","type":"uint256","internalType":"uint256"}],"stateMutability":"view"},{"type":"function","name":"activateAgent","inputs":[{"name":"_agentId","type":"uint256","internalType":"uint256"}],"outputs":[],"stateMutability":"nonpayable"},{"type":"function","name":"agentPositionIds","inputs":[{"name":"","type":"uint256","internalType":"uint256"},{"name":"","type":"uint256","internalType":"uint256"}],"outputs":[{"name":"","type":"uint256","internalType":"uint256"}],"stateMutability":"view"},{"type":"function","name":"agents","inputs":[{"name":"","type":"uint256","internalType":"uint256"}],"outputs":[{"name":"owner","type":"address","internalType":"address"},{"name":"delegate","type":"address","internalType":"address"},{"name":"name","type":"string","internalType":"string"},{"name":"systemPrompt","type":"string","internalType":"string"},{"name":"personality","type":"uint8","internalType":"uint8"},{"name":"balance","type":"uint256","internalType":"uint256"},{"name":"maxBetPerMarket","type":"uint256","internalType":"uint256"},{"name":"maxTotalExposure","type":"uint256","internalType":"uint256"},{"name":"currentExposure","type":"uint256","internalType":"uint256"},{"name":"allowedAssetTypes","type":"uint8","internalType":"uint8"},{"name":"confidenceThreshold","type":"uint8","internalType":"uint8"},{"name":"autoExecute","type":"bool","internalType":"bool"},{"name":"isActive","type":"bool","internalType":"bool"}],"stateMutability":"view"},{"type":"function","name":"cancelPosition","inputs":[{"name":"_positionId","type":"uint256","internalType":"uint256"}],"outputs":[],"stateMutability":"nonpayable"},{"type":"function","name":"claimRefund","inputs":[{"name":"_marketId","type":"uint256","internalType":"uint256"}],"outputs":[],"stateMutability":"nonpayable"},{"type":"function","name":"createAgent","inputs":[{"name":"_name","type":"string","internalType":"string"},{"name":"_systemPrompt","type":"string","internalType":"string"},{"name":"_personality","type":"uint8","internalType":"uint8"},{"name":"_delegate","type":"address","internalType":"address"},{"name":"_maxBetPerMarket","type":"uint256","internalType":"uint256"},{"name":"_maxTotalExposure","type":"uint256","internalType":"uint256"},{"name":"_allowedAssetTypes","type":"uint8","internalType":"uint8"},{"name":"_confidenceThreshold","type":"uint8","internalType":"uint8"},{"name":"_autoExecute","type":"bool","internalType":"bool"}],"outputs":[{"name":"agentId","type":"uint256","internalType":"uint256"}],"stateMutability":"payable"},{"type":"function","name":"createMarket","inputs":[{"name":"_dataSourceId","type":"uint256","internalType":"uint256"},{"name":"_targetPrice","type":"uint256","internalType":"uint256"},{"name":"_conditionAbove","type":"bool","internalType":"bool"},{"name":"_assetType","type":"uint8","internalType":"uint8"},{"name":"_resolutionTime","type":"uint256","internalType":"uint256"}],"outputs":[{"name":"marketId","type":"uint256","internalType":"uint256"}],"stateMutability":"nonpayable"},{"type":"function","name":"deactivateAgent","inputs":[{"name":"_agentId","type":"uint256","internalType":"uint256"}],"outputs":[],"stateMutability":"nonpayable"},{"type":"function","name":"delegateToAgentId","inputs":[{"name":"","type":"address","internalType":"address"}],"outputs":[{"name":"","type":"uint256","internalType":"uint256"}],"stateMutability":"view"},{"type":"function","name":"fundAgent","inputs":[{"name":"_agentId","type":"uint256","internalType":"uint256"},{"name":"_amount","type":"uint256","internalType":"uint256"}],"outputs":[],"stateMutability":"nonpayable"},{"type":"function","name":"getAgent","inputs":[{"name":"_agentId","type":"uint256","internalType":"uint256"}],"outputs":[{"name":"","type":"tuple","internalType":"struct BeliefMarket.AgentConfig","components":[{"name":"owner","type":"address","internalType":"address"},{"name":"delegate","type":"address","internalType":"address"},{"name":"name","type":"string","internalType":"string"},{"name":"systemPrompt","type":"string","internalType":"string"},{"name":"personality","type":"uint8","internalType":"uint8"},{"name":"balance","type":"uint256","internalType":"uint256"},{"name":"maxBetPerMarket","type":"uint256","internalType":"uint256"},{"name":"maxTotalExposure","type":"uint256","internalType":"uint256"},{"name":"currentExposure","type":"uint256","internalType":"uint256"},{"name":"allowedAssetTypes","type":"uint8","internalType":"uint8"},{"name":"confidenceThreshold","type":"uint8","internalType":"uint8"},{"name":"autoExecute","type":"bool","internalType":"bool"},{"name":"isActive","type":"bool","internalType":"bool"}]}],"stateMutability":"view"},{"type":"function","name":"getAgentCount","inputs":[],"outputs":[{"name":"","type":"uint256","internalType":"uint256"}],"stateMutability":"view"},{"type":"function","name":"getAgentPositionIds","inputs":[{"name":"_agentId","type":"uint256","internalType":"uint256"}],"outputs":[{"name":"","type":"uint256[]","internalType":"uint256[]"}],"stateMutability":"view"},{"type":"function","name":"getMarket","inputs":[{"name":"_marketId","type":"uint256","internalType":"uint256"}],"outputs":[{"name":"","type":"tuple","internalType":"struct BeliefMarket.Market","components":[{"name":"creator","type":"address","internalType":"address"},{"name":"dataSourceId","type":"uint256","internalType":"uint256"},{"name":"targetPrice","type":"uint256","internalType":"uint256"},{"name":"conditionAbove","type":"bool","internalType":"bool"},{"name":"assetType","type":"uint8","internalType":"uint8"},{"name":"resolutionTime","type":"uint256","internalType":"uint256"},{"name":"totalDeposits","type":"uint256","internalType":"uint256"},{"name":"totalPositions","type":"uint256","internalType":"uint256"},{"name":"status","type":"uint8","internalType":"enum BeliefMarket.MarketStatus"},{"name":"outcome","type":"bool","internalType":"bool"},{"name":"yesPool","type":"uint256","internalType":"uint256"},{"name":"noPool","type":"uint256","internalType":"uint256"}]}],"stateMutability":"view"},{"type":"function","name":"getMarketCount","inputs":[],"outputs":[{"name":"","type":"uint256","internalType":"uint256"}],"stateMutability":"view"},{"type":"function","name":"getMarketPositionIds","inputs":[{"name":"_marketId","type":"uint256","internalType":"uint256"}],"outputs":[{"name":"","type":"uint256[]","internalType":"uint256[]"}],"stateMutability":"view"},{"type":"function","name":"getOwnerAgentIds","inputs":[{"name":"_owner","type":"address","internalType":"address"}],"outputs":[{"name":"","type":"uint256[]","internalType":"uint256[]"}],"stateMutability":"view"},{"type":"function","name":"getPosition","inputs":[{"name":"_positionId","type":"uint256","internalType":"uint256"}],"outputs":[{"name":"","type":"tuple","internalType":"struct BeliefMarket.Position","components":[{"name":"trader","type":"address","internalType":"address"},{"name":"agentId","type":"uint256","internalType":"uint256"},{"name":"marketId","type":"uint256","internalType":"uint256"},{"name":"deposit","type":"uint256","internalType":"uint256"},{"name":"commitment","type":"bytes32","internalType":"bytes32"},{"name":"direction","type":"bool","internalType":"bool"},{"name":"status","type":"uint8","internalType":"enum BeliefMarket.PositionStatus"},{"name":"payout","type":"uint256","internalType":"uint256"},{"name":"revealed","type":"bool","internalType":"bool"}]}],"stateMutability":"view"},{"type":"function","name":"getUserPositionIds","inputs":[{"name":"_user","type":"address","internalType":"address"}],"outputs":[{"name":"","type":"uint256[]","internalType":"uint256[]"}],"stateMutability":"view"},{"type":"function","name":"marketPositionIds","inputs":[{"name":"","type":"uint256","internalType":"uint256"},{"name":"","type":"uint256","internalType":"uint256"}],"outputs":[{"name":"","type":"uint256","internalType":"uint256"}],"stateMutability":"view"},{"type":"function","name":"markets","inputs":[{"name":"","type":"uint256","internalType":"uint256"}],"outputs":[{"name":"creator","type":"address","internalType":"address"},{"name":"dataSourceId","type":"uint256","internalType":"uint256"},{"name":"targetPrice","type":"uint256","internalType":"uint256"},{"name":"conditionAbove","type":"bool","internalType":"bool"},{"name":"assetType","type":"uint8","internalType":"uint8"},{"name":"resolutionTime","type":"uint256","internalType":"uint256"},{"name":"totalDeposits","type":"uint256","internalType":"uint256"},{"name":"totalPositions","type":"uint256","internalType":"uint256"},{"name":"status","type":"uint8","internalType":"enum BeliefMarket.MarketStatus"},{"name":"outcome","type":"bool","internalType":"bool"},{"name":"yesPool","type":"uint256","internalType":"uint256"},{"name":"noPool","type":"uint256","internalType":"uint256"}],"stateMutability":"view"},{"type":"function","name":"nextAgentId","inputs":[],"outputs":[{"name":"","type":"uint256","internalType":"uint256"}],"stateMutability":"view"},{"type":"function","name":"nextMarketId","inputs":[],"outputs":[{"name":"","type":"uint256","internalType":"uint256"}],"stateMutability":"view"},{"type":"function","name":"nextPositionId","inputs":[],"outputs":[{"name":"","type":"uint256","internalType":"uint256"}],"stateMutability":"view"},{"type":"function","name":"ownerAgentIds","inputs":[{"name":"","type":"address","internalType":"address"},{"name":"","type":"uint256","internalType":"uint256"}],"outputs":[{"name":"","type":"uint256","internalType":"uint256"}],"stateMutability":"view"},{"type":"function","name":"positions","inputs":[{"name":"","type":"uint256","internalType":"uint256"}],"outputs":[{"name":"trader","type":"address","internalType":"address"},{"name":"agentId","type":"uint256","internalType":"uint256"},{"name":"marketId","type":"uint256","internalType":"uint256"},{"name":"deposit","type":"uint256","internalType":"uint256"},{"name":"commitment","type":"bytes32","internalType":"bytes32"},{"name":"direction","type":"bool","internalType":"bool"},{"name":"status","type":"uint8","internalType":"enum BeliefMarket.PositionStatus"},{"name":"payout","type":"uint256","internalType":"uint256"},{"name":"revealed","type":"bool","internalType":"bool"}],"stateMutability":"view"},{"type":"function","name":"resolveMarket","inputs":[{"name":"_marketId","type":"uint256","internalType":"uint256"},{"name":"_outcome","type":"bool","internalType":"bool"}],"outputs":[],"stateMutability":"nonpayable"},{"type":"function","name":"revealPosition","inputs":[{"name":"_positionId","type":"uint256","internalType":"uint256"},{"name":"_direction","type":"bool","internalType":"bool"},{"name":"_salt","type":"bytes32","internalType":"bytes32"}],"outputs":[],"stateMutability":"nonpayable"},{"type":"function","name":"submitPosition","inputs":[{"name":"_marketId","type":"uint256","internalType":"uint256"},{"name":"_commitment","type":"bytes32","internalType":"bytes32"},{"name":"_deposit","type":"uint256","internalType":"uint256"}],"outputs":[{"name":"positionId","type":"uint256","internalType":"uint256"}],"stateMutability":"nonpayable"},{"type":"function","name":"submitPositionForAgent","inputs":[{"name":"_agentId","type":"uint256","internalType":"uint256"},{"name":"_marketId","type":"uint256","internalType":"uint256"},{"name":"_commitment","type":"bytes32","internalType":"bytes32"},{"name":"_deposit","type":"uint256","internalType":"uint256"}],"outputs":[{"name":"positionId","type":"uint256","internalType":"uint256"}],"stateMutability":"nonpayable"},{"type":"function","name":"updateAgent","inputs":[{"name":"_agentId","type":"uint256","internalType":"uint256"},{"name":"_name","type":"string","internalType":"string"},{"name":"_systemPrompt","type":"string","internalType":"string"},{"name":"_personality","type":"uint8","internalType":"uint8"},{"name":"_delegate","type":"address","internalType":"address"},{"name":"_maxBetPerMarket","type":"uint256","internalType":"uint256"},{"name":"_maxTotalExposure","type":"uint256","internalType":"uint256"},{"name":"_allowedAssetTypes","type":"uint8","internalType":"uint8"},{"name":"_confidenceThreshold","type":"uint8","internalType":"uint8"},{"name":"_autoExecute","type":"bool","internalType":"bool"}],"outputs":[],"stateMutability":"nonpayable"},{"type":"function","name":"usdc","inputs":[],"outputs":[{"name":"","type":"address","internalType":"contract IERC20"}],"stateMutability":"view"},{"type":"function","name":"userPositionIds","inputs":[{"name":"","type":"address","internalType":"address"},{"name":"","type":"uint256","internalType":"uint256"}],"outputs":[{"name":"","type":"uint256","internalType":"uint256"}],"stateMutability":"view"},{"type":"function","name":"withdrawFromAgent","inputs":[{"name":"_agentId","type":"uint256","internalType":"uint256"},{"name":"_amount","type":"uint256","internalType":"uint256"}],"outputs":[],"stateMutability":"nonpayable"},{"type":"event","name":"AgentActivated","inputs":[{"name":"agentId","type":"uint256","indexed":true,"internalType":"uint256"}],"anonymous":false},{"type":"event","name":"AgentCreated","inputs":[{"name":"agentId","type":"uint256","indexed":true,"internalType":"uint256"},{"name":"owner","type":"address","indexed":true,"internalType":"address"},{"name":"delegate","type":"address","indexed":false,"internalType":"address"},{"name":"name","type":"string","indexed":false,"internalType":"string"},{"name":"personality","type":"uint8","indexed":false,"internalType":"uint8"}],"anonymous":false},{"type":"event","name":"AgentDeactivated","inputs":[{"name":"agentId","type":"uint256","indexed":true,"internalType":"uint256"}],"anonymous":false},{"type":"event","name":"AgentFunded","inputs":[{"name":"agentId","type":"uint256","indexed":true,"internalType":"uint256"},{"name":"amount","type":"uint256","indexed":false,"internalType":"uint256"},{"name":"newBalance","type":"uint256","indexed":false,"internalType":"uint256"}],"anonymous":false},{"type":"event","name":"AgentUpdated","inputs":[{"name":"agentId","type":"uint256","indexed":true,"internalType":"uint256"},{"name":"owner","type":"address","indexed":true,"internalType":"address"}],"anonymous":false},{"type":"event","name":"AgentWithdrawal","inputs":[{"name":"agentId","type":"uint256","indexed":true,"internalType":"uint256"},{"name":"amount","type":"uint256","indexed":false,"internalType":"uint256"},{"name":"newBalance","type":"uint256","indexed":false,"internalType":"uint256"}],"anonymous":false},{"type":"event","name":"MarketCreated","inputs":[{"name":"marketId","type":"uint256","indexed":true,"internalType":"uint256"},{"name":"creator","type":"address","indexed":true,"internalType":"address"},{"name":"dataSourceId","type":"uint256","indexed":false,"internalType":"uint256"},{"name":"targetPrice","type":"uint256","indexed":false,"internalType":"uint256"},{"name":"conditionAbove","type":"bool","indexed":false,"internalType":"bool"},{"name":"assetType","type":"uint8","indexed":false,"internalType":"uint8"},{"name":"resolutionTime","type":"uint256","indexed":false,"internalType":"uint256"}],"anonymous":false},{"type":"event","name":"MarketRefunded","inputs":[{"name":"marketId","type":"uint256","indexed":true,"internalType":"uint256"},{"name":"totalRefunded","type":"uint256","indexed":false,"internalType":"uint256"}],"anonymous":false},{"type":"event","name":"MarketResolutionTriggered","inputs":[{"name":"marketId","type":"uint256","indexed":true,"internalType":"uint256"},{"name":"outcome","type":"bool","indexed":false,"internalType":"bool"},{"name":"triggeredBy","type":"address","indexed":false,"internalType":"address"}],"anonymous":false},{"type":"event","name":"MarketSettled","inputs":[{"name":"marketId","type":"uint256","indexed":true,"internalType":"uint256"},{"name":"outcome","type":"bool","indexed":false,"internalType":"bool"},{"name":"yesPool","type":"uint256","indexed":false,"internalType":"uint256"},{"name":"noPool","type":"uint256","indexed":false,"internalType":"uint256"},{"name":"totalPositions","type":"uint256","indexed":false,"internalType":"uint256"}],"anonymous":false},{"type":"event","name":"PositionCancelled","inputs":[{"name":"positionId","type":"uint256","indexed":true,"internalType":"uint256"},{"name":"trader","type":"address","indexed":true,"internalType":"address"},{"name":"refundAmount","type":"uint256","indexed":false,"internalType":"uint256"}],"anonymous":false},{"type":"event","name":"PositionRevealed","inputs":[{"name":"positionId","type":"uint256","indexed":true,"internalType":"uint256"},{"name":"direction","type":"bool","indexed":false,"internalType":"bool"}],"anonymous":false},{"type":"event","name":"PositionSettled","inputs":[{"name":"positionId","type":"uint256","indexed":true,"internalType":"uint256"},{"name":"marketId","type":"uint256","indexed":true,"internalType":"uint256"},{"name":"trader","type":"address","indexed":true,"internalType":"address"},{"name":"direction","type":"bool","indexed":false,"internalType":"bool"},{"name":"deposit","type":"uint256","indexed":false,"internalType":"uint256"},{"name":"payout","type":"uint256","indexed":false,"internalType":"uint256"}],"anonymous":false},{"type":"event","name":"PositionSubmitted","inputs":[{"name":"positionId","type":"uint256","indexed":true,"internalType":"uint256"},{"name":"marketId","type":"uint256","indexed":true,"internalType":"uint256"},{"name":"trader","type":"address","indexed":true,"internalType":"address"},{"name":"agentId","type":"uint256","indexed":false,"internalType":"uint256"},{"name":"deposit","type":"uint256","indexed":false,"internalType":"uint256"}],"anonymous":false},{"type":"error","name":"AgentAssetTypeNotAllowed","inputs":[]},{"type":"error","name":"AgentBetExceedsMax","inputs":[]},{"type":"error","name":"AgentExposureExceeded","inputs":[]},{"type":"error","name":"AgentInsufficientBalance","inputs":[]},{"type":"error","name":"AgentLimitReached","inputs":[]},{"type":"error","name":"AgentNotActive","inputs":[]},{"type":"error","name":"AgentNotAuthorized","inputs":[]},{"type":"error","name":"AgentNotFound","inputs":[]},{"type":"error","name":"FailedCall","inputs":[]},{"type":"error","name":"InsufficientBalance","inputs":[{"name":"balance","type":"uint256","internalType":"uint256"},{"name":"needed","type":"uint256","internalType":"uint256"}]},{"type":"error","name":"InsufficientWithdrawBalance","inputs":[]},{"type":"error","name":"InvalidDeposit","inputs":[]},{"type":"error","name":"InvalidResolutionTime","inputs":[]},{"type":"error","name":"MarketFull","inputs":[]},{"type":"error","name":"MarketNotFound","inputs":[]},{"type":"error","name":"MarketNotOpen","inputs":[]},{"type":"error","name":"NotMarketCreator","inputs":[]},{"type":"error","name":"NotPositionOwner","inputs":[]},{"type":"error","name":"PositionNotActive","inputs":[]},{"type":"error","name":"PositionNotFound","inputs":[]},{"type":"error","name":"ReentrancyGuardReentrantCall","inputs":[]},{"type":"error","name":"RefundTooEarly","inputs":[]},{"type":"error","name":"ResolutionTooEarly","inputs":[]},{"type":"error","name":"SafeERC20FailedOperation","inputs":[{"name":"token","type":"address","internalType":"address"}]}],"bytecode":{"object":"0x60a0346100bf57601f612fde38819003918201601f19168301916001600160401b038311848410176100c3578084926020946040528339810103126100bf57516001600160a01b038116908190036100bf5760017f9b779b17422d0df92223018b32b4d1fa46e071723d6817e2486d003becc55f00556080526001600655604051612f0690816100d882396080518181816105f001528181610a2c01528181610cba01528181611ac601528181611e520152818161216c0152612a8b0152f35b5f80fd5b634e487b7160e01b5f52604160045260245ffdfe608080604052600436101561001057005b5f3560e01c90816302f92a321461258c57508063037819d214612554578063095d2dad146122445780631090d54c146115e557806311ba6b4a146121d85780631dc41b7f146121be5780632787a4c6146120ed5780632de5aaf714611ee557806330efc49814610fc05780633343ce8514611e815780633e413bee14611e3d578063406ef2ef146101fc57806342c712b814611e0e5780634c42003f14611ddf5780634f3173c514611dc4578063513856c814611ccc57806357bde44614611c8d5780635ab7703e14611b3d5780635b7baf641461195f5780636cca35c0146119445780636cd5c51d146115ea5780636cf2c4d3146115e557806377b44abd1461057c5780637b6eb9b61461159c5780637bdc43b01461152a57806382f0fbc314611015578063899346c714610ff85780638d6d985514610fdd57806391cab63e14610fc057806399fbab8814610f23578063ac26398414610ebf578063acbea67514610c29578063b080e70114610bd1578063b1283e7714610b10578063b6783ec214610af3578063cd4e9ffa146108b8578063d11257d014610846578063db871b611461066e578063dc290a7614610581578063e3fb6a721461057c578063eb02c30114610439578063eb44fdd31461029e578063eddf75701461021c5763fd69f3c2146101fc57005b34610218575f3660031901126102185760205f54604051908152f35b5f80fd5b34610218576020366003190112610218576001600160a01b0361023d6125a5565b165f52600560205260405f206040519081602082549182815201915f5260205f20905f5b8181106102885761028485610278818703826126fe565b60405191829182612610565b0390f35b8254845260209093019260019283019201610261565b34610218576020366003190112610218575f6101606040516102bf816126e2565b8281528260208201528260408201528260608201528260808201528260a08201528260c08201528260e082015282610100820152826101208201528261014082015201526004355f52600160205261018060405f2060405190610321826126e2565b60018060a01b0381541682528160018201549160208201928352600281015490604083019182526003810154606084019060ff81161515825260ff608086019160081c168152600483015460a0860190815260ff60058501549260c0880193845260068601549460e089019586526007870154976009848a16986101008c01996103aa81612836565b8a52856101208d019b60081c1615158b5261014060088201549c019b8c5201549a6101608d019b8c526040519c60018060a01b039051168d525160208d01525160408c015251151560608b0152511660808901525160a08801525160c08701525160e08601525161041a81612836565b6101008501525115156101208401525161014083015251610160820152f35b34610218576020366003190112610218575f61010060405161045a816126aa565b8281528260208201528260408201528260608201528260808201528260a08201528260c08201528260e082015201526004355f52600360205261012060405f20604051906104a7826126aa565b60018060a01b0381541682526001810154906020830191825260028101546040840190815260038201546060850190815260048301546080860190815260058401549160ff60a08801938181161515855260081c169360c088019461050b81612836565b855260ff600760068801549760e08b0198895201541696610100890197151588526040519860018060a01b03905116895251602089015251604088015251606087015251608086015251151560a08501525161056681612836565b60c08401525160e0830152511515610100820152f35b61281b565b346102185761058f366125d6565b610597612c8f565b5f82815260076020526040902080546001600160a01b0316801561065f573303610650578115610641578160056040926106147f79b88d56bc0c3e52dd3677f017bcf1365770f0adbfe09004b29b1d0c05e4a0379530337f0000000000000000000000000000000000000000000000000000000000000000612dae565b01610620828254612854565b80915582519182526020820152a260015f516020612eb15f395f51905f5255005b635972996f60e11b5f5260045ffd5b63316ac86960e21b5f5260045ffd5b63e93ba22360e01b5f5260045ffd5b346102185760a036600319011261021857600435602435906044358015158091036102185761069b6127fb565b6084359142831115610838575f54946106b38661286e565b5f556040516106c1816126e2565b338152866020820187815260408301958487526060840196868852608085019160ff169788835260a086018a815260c08701905f825260e08801925f84526101008901955f87526101208a01955f87526101408b01985f8a526101608c019a5f8c525f52600160205260405f209b600160a01b6001900390600160a01b60019003905116166001600160601b0360a01b8d5416178c555160018c01555160028b015560038a019151151561078190839060ff801983541691151516179055565b51815461ff00191660089190911b61ff00161790555160048801555160058701555160068601556007850191516107b781612836565b6107c081612836565b8254915161ffff1990921660ff919091161790151560081b61ff0016179055516008830155519060090155604051948552602085015260408401526060830152608082015281339160a07f07a7db2e6b556f1127f6ec23064402b6427ed19a8e335a2b0e90cd3a3ff4f70b91a3604051908152602090f35b6282a4d560e51b5f5260045ffd5b34610218576020366003190112610218576004355f81815260076020526040902080546001600160a01b0316801561065f57330361065057600901805463ff000000191663010000001790557fc35f0e749480e262cd9a97d85fbdb391fb8b6f4549fc9e39ca11df61768d280c5f80a2005b34610218576020366003190112610218576004356108d4612c8f565b5f81815260036020526040902080546001600160a01b03168015610ae4576005820180549060ff8260081c1661090981612836565b610ad5576001840192835480155f14610a8757503303610a78575b600284019182545f52600160205260405f209460ff60078701541661094881612836565b610a695760069261020060039361ff0019161790550193845461097060058301918254612861565b90550180548015610a55575f19019055545f5260046020526109958360405f20612e17565b805415610a2357545f526007602052600860405f2082546109bb60058301918254612854565b9055018054825480821015610a10575b5050505b54906040519182527f6831922bd3529a689034896659a9797ea9e1e1c5914e3d22cdaae3931047f6e360203393a360015f516020612eb15f395f51905f5255005b610a1991612861565b90558280806109cb565b50610a508154337f0000000000000000000000000000000000000000000000000000000000000000612cc7565b6109cf565b634e487b7160e01b5f52601160045260245ffd5b63300b4e3360e21b5f5260045ffd5b6370d645e360e01b5f5260045ffd5b90505f52600760205260405f2060018060a01b038154163314159081610abd575b50156109245763316ac86960e21b5f5260045ffd5b600101546001600160a01b0316331415905086610aa8565b63a8a168bf60e01b5f5260045ffd5b636ec9be1160e01b5f5260045ffd5b34610218575f36600319011261021857602060405162093a808152f35b34610218576020366003190112610218576004355f52600160205261018060405f2060018060a01b038154169060018101549060ff6002820154600383015490600484015460058501546006860154918560078801549581871695600960088b01549a01549a6040519c8d5260208d015260408c0152818116151560608c015260081c1660808a015260a089015260c088015260e0870152610bb181612836565b61010086015260081c161515610120840152610140830152610160820152f35b3461021857604036600319011261021857610bea6125a5565b6001600160a01b03165f9081526008602052604090208054602435919082101561021857602091610c1a91612649565b90549060031b1c604051908152f35b3461021857606036600319011261021857600435602435604435610c4b612c8f565b5f83815260016020526040902080549093906001600160a01b031615610eb05760ff600785015416610c7c81612836565b610a69576004840154421015610a6957805f526004602052601460405f20541015610ea1578115610641578215610e67576006602094610cde8430337f0000000000000000000000000000000000000000000000000000000000000000612dae565b610dd660025495610cee8761286e565b60025560078760405192610d01846126aa565b338452610dbb8b8501915f8352604086018a815260608701918c83526080880190815260a08801925f845260c08901925f845260e08a01965f88526101008b01985f8a525f5260206003905260405f209a60018060a01b039060018060a01b03905116166001600160601b0360a01b8c5416178b555160018b01555160028a0155516003890155516004880155610dab6005880192511515839060ff801983541691151516179055565b5190610db682612836565b61287c565b518684015551151591019060ff801983541691151516179055565b825f5260048652610dea8560405f2061289b565b335f5260058652610dfe8560405f2061289b565b60058101610e0d858254612854565b905501610e1a815461286e565b9055604051915f835284830152827f290cb6ebe26a5c3bf27006d4b80f245cc0e8203a3ffa25f3b7d8c3b49377ef7560403394a460015f516020612eb15f395f51905f5255604051908152f35b60405162461bcd60e51b8152602060048201526012602482015271125b9d985b1a590818dbdb5b5a5d1b595b9d60721b6044820152606490fd5b636253d12160e01b5f5260045ffd5b6307db1be560e41b5f5260045ffd5b34610218576020366003190112610218576004355f52600a60205260405f206040519081602082549182815201915f5260205f20905f5b818110610f0d5761028485610278818703826126fe565b8254845260209093019260019283019201610ef6565b34610218576020366003190112610218576004355f52600360205261012060405f2060018060a01b0381541690600181015490600281015460ff60038301546004840154600585015491838360081c169484600760068901549801541697604051998a5260208a015260408901526060880152608087015216151560a0850152610fac81612836565b60c084015260e08301521515610100820152f35b34610218575f366003190112610218576020600654604051908152f35b34610218575f366003190112610218576020604051600a8152f35b34610218575f366003190112610218576020600254604051908152f35b610120366003190112610218576004356001600160401b038111610218576110419036906004016127ce565b6024356001600160401b038111610218576110609036906004016127ce565b91909260443560ff8116810361021857606435906001600160a01b03821682036102185760c4359260ff84168094036102185761109b61280b565b93610104359687151580980361021857335f526008602052600a60405f2054101561151b57600654976110cd8961286e565b60065560ff604051976110df896126c6565b3389526001600160a01b03881660208a019081529b61111290611103368d8a612c4a565b9560408c019687523691612c4a565b60608a0190815287831660808b01525f60a08b0181905260843560c08c015260a43560e08c01526101008b018190526101208b019690965291166101408901526101608801919091526001610180880181905289845260076020526040909320875181546001600160a01b03199081166001600160a01b039283161783559b519482018054909c1694169390931790995551805191989160028a01916001600160401b038211611499576111d0826111ca8554612672565b85612bfb565b602090601f83116001146114b8576111ff92915f91836114ad575b50508160011b915f199060031b1c19161790565b90555b51908151946001600160401b03861161149957888688946112368b9961122d600360209f0154612672565b60038601612bfb565b8b90601f83116001146113f3577f5dfc1ce0cb86c4902dad5f8c3dc59c4d534960c4e11febf4adf71811da39496c989795936112928460ff999795610180956009955f926113e85750508160011b915f199060031b1c19161790565b60038201555b8760808501511688600483019116891982541617905560a0840151600582015560c0840151600682015560e084015160078201556101008401516008820155019186806101208301511616871984541617835561130d8761014083015116849061ff0082549160081b169061ff001916179055565b610160810151835462ff0000191690151560101b62ff0000161783550151151563ff00000082549160181b169063ff0000001916179055335f5260088a526113588760405f2061289b565b6001600160a01b0385166113b1575b6040516001600160a01b03909516855260608a8601819052850182905260808501375f608087850101521660408201526080813395601f80199101168101030190a3604051908152f35b6001600160a01b0385165f90815260098b52604090208790553415611367576113e3346001600160a01b038716612d48565b611367565b015190505f806111eb565b60038493929a999897969594015f52895f20905f5b601f198416811061147c5750926001836009937f5dfc1ce0cb86c4902dad5f8c3dc59c4d534960c4e11febf4adf71811da39496c9c9d60ff9b9a99989761018097601f19811610611464575b505050811b016003820155611298565b01515f1960f88460031b161c191690555f8080611454565b818c015183559a8e019a8d9a508c97506001909201918e01611408565b634e487b7160e01b5f52604160045260245ffd5b015190508c806111eb565b90601f19831691845f52815f20925f5b81811061150357509084600195949392106114eb575b505050811b019055611202565b01515f1960f88460031b161c191690558b80806114de565b929360206001819287860151815501950193016114c8565b63425e96f160e11b5f5260045ffd5b34610218576020366003190112610218576001600160a01b0361154b6125a5565b165f52600860205260405f206040519081602082549182815201915f5260205f20905f5b8181106115865761028485610278818703826126fe565b825484526020909301926001928301920161156f565b34610218576040366003190112610218576115b56125a5565b6001600160a01b03165f9081526005602052604090208054602435919082101561021857602091610c1a91612649565b6125bb565b3461021857610140366003190112610218576004356024356001600160401b0381116102185761161e9036906004016127ce565b91906044356001600160401b0381116102185761163f9036906004016127ce565b90936116496127fb565b6084356001600160a01b03811694908590036102185761166761280b565b92610104359260ff841684036102185761012435958615158703610218575f89815260076020526040902080549094906001600160a01b0316801561065f573303610650576001850180549094906001600160a01b03168015158061193a575b611927575b5060028601916001600160401b038211611499576116ee826111ca8554612672565b5f90601f83116001146118c35761171b92915f91836118b85750508160011b915f199060031b1c19161790565b90555b60038401906001600160401b038111611499576117458161173f8454612672565b84612bfb565b5f9a601f821160011461184257926117db9695926117848360ff97946117f59d9e9f6009985f926118375750508160011b915f199060031b1c19161790565b90555b846004840191168519825416179055896001600160601b0360a01b82541617905560a435600682015560c435600782015501931660ff19845416178355829061ff0082549160081b169061ff001916179055565b9062ff0000825491151560101b169062ff00001916179055565b80611824575b5033907f1689d592dc10833966a53b6bfc0a340ce9f69d1c9f30268da4a7cedc355e245b5f80a3005b5f5260096020528060405f2055816117fb565b013590505f806111eb565b9a601f19821690835f5260205f20915f5b8181106118a0575083600996936117f59d9e9f6117db9b9a979460ff9a9760019510611887575b505050811b019055611787565b01355f19600384901b60f8161c191690558f808061187a565b8e830135845560019093019260209283019201611853565b013590508e806111eb565b601f19831691845f5260205f20925f5b81811061190f57509084600195949392106118f6575b505050811b01905561171e565b01355f19600384901b60f8161c191690558d80806118e9565b919360206001819287870135815501950192016118d3565b5f5260096020525f60408120558c6116cc565b508a8114156116c7565b34610218575f36600319011261021857602060405160048152f35b346102185760203660031901126102185760043561197b612c8f565b5f81815260016020526040902080546001600160a01b031615610eb057600781019081549060ff82166119ad81612836565b610a69576004015462093a808101809111610a55574210611b2e5760ff191660031790555f8181526004602052604081209190805b8354811015611aef576119f58185612649565b90549060031b1c5f52600360205260405f2060058101805460ff8160081c16611a1d81612836565b15611a2e575b5050506001016119e2565b916001939491610300611a9a9461ff0019161790556003810190815480600683015585820191825415155f14611ab6575050545f526007602052600860405f208254611a7f60058301918254612854565b9055018054825480821015611aa3575b5050505b5490612854565b91908580611a23565b611aac91612861565b9055878080611a8f565b611aea9250868060a01b039054167f0000000000000000000000000000000000000000000000000000000000000000612cc7565b611a93565b5060207f9ff3046c4ebf3e552f7469d40dfd4070ebbaa8521f7220994500633e1725da9f91604051908152a260015f516020612eb15f395f51905f5255005b634a01daaf60e11b5f5260045ffd5b3461021857606036600319011261021857600435611b596127bf565b611b61612c8f565b815f52600360205260405f20906007820160ff815416611c48576040519060208201831515928360f81b8252604435602182015260218152611ba46041826126fe565b519020600485015403611c1257611bed60209360057fe5f88776f53d5baf5071cd6e682758713a4baee9497819966c600e0eda2426b696019060ff801983541691151516179055565b805460ff19166001179055604051908152a260015f516020612eb15f395f51905f5255005b60405162461bcd60e51b815260206004820152600e60248201526d125b9d985b1a59081c995d99585b60921b6044820152606490fd5b60405162461bcd60e51b815260206004820152601960248201527f506f736974696f6e20416c72656164792052657665616c6564000000000000006044820152606490fd5b3461021857604036600319011261021857611cb9611ca96127bf565b611cb1612c8f565b6004356128db565b60015f516020612eb15f395f51905f5255005b34610218576020366003190112610218576004355f908152600760205260409020805460018201546001600160a01b039081169291169060ff611d116002830161271f565b611d1d6003840161271f565b9282600482015416936005820154600683015490611d76600785015493611d6860096008880154970154976040519c8d9c8d5260208d01526101a060408d01526101a08c01906125ec565b908a820360608c01526125ec565b96608089015260a088015260c087015260e0860152610100850152818116610120850152818160081c16610140850152818160101c16151561016085015260181c1615156101808301520390f35b34610218575f36600319011261021857602060405160148152f35b3461021857611ded366125d6565b905f52600460205260405f20805482101561021857602091610c1a91612649565b3461021857611e1c366125d6565b905f52600a60205260405f20805482101561021857602091610c1a91612649565b34610218575f366003190112610218576040517f00000000000000000000000000000000000000000000000000000000000000006001600160a01b03168152602090f35b34610218576020366003190112610218576004355f52600460205260405f206040519081602082549182815201915f5260205f20905f5b818110611ecf5761028485610278818703826126fe565b8254845260209093019260019283019201611eb8565b3461021857602036600319011261021857604051611f02816126c6565b5f8152602081015f905260408101606090526060810160609052608081015f905260a081015f905260c081015f905260e081015f905261010081015f905261012081015f905261014081015f905261016081015f9052610180015f90526004355f52600760205260405f20604051611f79816126c6565b81546001600160a01b0390811682526001830154166020820190815291611fa26002820161271f565b6040830190815290611fb66003820161271f565b9160608401928352600482015460ff169260808501938452600583015460a0860190815260068401549360c08701948552600781015460e088019081526008820154916101008901928352600901549561012089019360ff881685526101408a01958860081c60ff1687526101608b01978960101c60ff16151589526101808c019960181c60ff1615158a526040519c8d809d60208252600160a01b600190039051169060200152600160a01b6001900390511660408d01525160608c016101a090526101c08c01612087916125ec565b90518b8203601f190160808d015261209f91906125ec565b985160ff1660a08b01525160c08a01525160e089015251610100880152516101208701525160ff166101408601525160ff166101608501525115156101808401525115156101a08301520390f35b34610218576120fb366125d6565b612103612c8f565b5f82815260076020526040902080546001600160a01b0316801561065f57330361065057600501908154908082106121af577f19df48646c7a8c5cafb72a75ac78a702546fbb389573e71ab211ae8228b839e29261216382604094612861565b815561219082337f0000000000000000000000000000000000000000000000000000000000000000612cc7565b5482519182526020820152a260015f516020612eb15f395f51905f5255005b6319f75dbd60e01b5f5260045ffd5b34610218575f3660031901126102185760206040515f8152f35b34610218576020366003190112610218576004355f81815260076020526040902080546001600160a01b0316801561065f57330361065057600901805463ff000000191690557fc2fb7f8575ac3990e70361684edfc4d283931ea9a03dfa28766bf376a3934aa25f80a2005b3461021857608036600319011261021857602435600435606435612266612c8f565b5f82815260076020526040902080546001600160a01b03169390841561065f5760098101549460ff8660181c1615612545573314158061252e575b610650575f82815260016020526040902080549091906001600160a01b031615610eb05760ff6007830154166122d681612836565b610a69576004820154421015610a6957825f526004602052601460405f20541015610ea1578315610641576006810154841161251f57600881019586549061231e8683612854565b60078401541061251057600384015460081c1660ff16156125015760058201958654928684106124f2576020986123878860409560069b612380837f290cb6ebe26a5c3bf27006d4b80f245cc0e8203a3ffa25f3b7d8c3b49377ef759a612861565b9055612854565b90556002549788956123988761286e565b600255612464896007898b610dbb60018060a01b03895416948b51956123bd876126aa565b865260208601928b84528c87019081526060870191825260808701604435815260a08801925f845260c08901925f845260e08a01965f88526101008b01985f8a525f5260206003905260405f209a60018060a01b039060018060a01b03905116166001600160601b0360a01b8c5416178b555160018b01555160028a0155516003890155516004880155610dab6005880192511515839060ff801983541691151516179055565b875f5260048b5261247787865f2061289b565b60018060a01b038354165f5260058b5261249387865f2061289b565b835f52600a8b526124a687865f2061289b565b600581016124b58a8254612854565b9055016124c2815461286e565b905560018060a01b0390541695825191825288820152a460015f516020612eb15f395f51905f5255604051908152f35b63429f9e4d60e11b5f5260045ffd5b6316cee91760e11b5f5260045ffd5b632340c62960e21b5f5260045ffd5b6356c68ea160e11b5f5260045ffd5b5060018101546001600160a01b03163314156122a1565b632437e77160e11b5f5260045ffd5b34610218576020366003190112610218576001600160a01b036125756125a5565b165f526009602052602060405f2054604051908152f35b34610218575f3660031901126102185780600360209252f35b600435906001600160a01b038216820361021857565b34610218575f36600319011261021857602060405160018152f35b6040906003190112610218576004359060243590565b805180835260209291819084018484015e5f828201840152601f01601f1916010190565b60206040818301928281528451809452019201905f5b8181106126335750505090565b8251845260209384019390920191600101612626565b805482101561265e575f5260205f2001905f90565b634e487b7160e01b5f52603260045260245ffd5b90600182811c921680156126a0575b602083101461268c57565b634e487b7160e01b5f52602260045260245ffd5b91607f1691612681565b61012081019081106001600160401b0382111761149957604052565b6101a081019081106001600160401b0382111761149957604052565b61018081019081106001600160401b0382111761149957604052565b90601f801991011681019081106001600160401b0382111761149957604052565b9060405191825f82549261273284612672565b808452936001811690811561279d5750600114612759575b50612757925003836126fe565b565b90505f9291925260205f20905f915b818310612781575050906020612757928201015f61274a565b6020919350806001915483858901015201910190918492612768565b90506020925061275794915060ff191682840152151560051b8201015f61274a565b60243590811515820361021857565b9181601f84011215610218578235916001600160401b038311610218576020838186019501011161021857565b6064359060ff8216820361021857565b60e4359060ff8216820361021857565b34610218575f36600319011261021857602060405160028152f35b6004111561284057565b634e487b7160e01b5f52602160045260245ffd5b91908201809211610a5557565b91908203918211610a5557565b5f198114610a555760010190565b9061288681612836565b61ff0082549160081b169061ff001916179055565b908154916801000000000000000083101561149957826128c391600161275795018155612649565b90919082549060031b91821b915f19901b1916179055565b5f81815260016020526040902080549192916001600160a01b03168015610eb0573303612bec57600781019081549160ff831661291781612836565b610a695760048201544210612bdd57845f52600460205260405f20908154938415612b825750805461ffff191685151560081b61ff00161760011781555f915f80945f5b878110612b08575080856008600993015501556129788484612854565b908615612b0257835b5f5b8781106129db575050505091608093917fa6e6dc0afa08032b7940618f03a2121fe5d319f4c3734b06229462a01fb84eba9593600260ff198254161790556040519315158452602084015260408301526060820152a2565b6129e58184612649565b90549060031b1c5f52600360205260405f209060ff60078301541615612af55760058201805461ff001981166101001790915583612ab45750816003600193015460068201555b60068101805480612a42575b5050505b01612983565b828501805490939015612a785750505490545f526007602052612a6d600560405f2001918254612854565b90555b5f8080612a38565b909150612aaf9250848060a01b039054167f0000000000000000000000000000000000000000000000000000000000000000612cc7565b612a70565b60ff1615158a151503612ae75760038201549185830292808404871490151715610a555783600193046006820155612a2c565b815f60066001940155612a2c565b5f60066001930155612a3c565b84612981565b909150612b158184612649565b90549060031b1c5f52600360205260405f2060ff600782015416612b40575b5060010190859161295b565b600581015491959160ff1615612b69576001916003612b6192015490612854565b945b90612b34565b60019195966003612b7c92015490612854565b95612b63565b61ffff191685151560081b61ff0016176002179055507fa6e6dc0afa08032b7940618f03a2121fe5d319f4c3734b06229462a01fb84eba9260809250905060405190151581525f60208201525f60408201525f6060820152a2565b633c04f06b60e01b5f5260045ffd5b6336e6e9b360e21b5f5260045ffd5b601f8211612c0857505050565b5f5260205f20906020601f840160051c83019310612c40575b601f0160051c01905b818110612c35575050565b5f8155600101612c2a565b9091508190612c21565b9291926001600160401b0382116114995760405191612c73601f8201601f1916602001846126fe565b829481845281830111610218578281602093845f960137010152565b60025f516020612eb15f395f51905f525414612cb85760025f516020612eb15f395f51905f5255565b633ee5aeb560e01b5f5260045ffd5b916040519163a9059cbb60e01b5f5260018060a01b031660045260245260205f60448180865af19060015f5114821615612d27575b60405215612d075750565b635274afe760e01b5f9081526001600160a01b0391909116600452602490fd5b906001811516612d3f57823b15153d15161690612cfc565b503d5f823e3d90fd5b814710612d97575f808093819382604051612d646020826126fe565b526001600160a01b03165af115612d7757565b3d15612d88576040513d5f823e3d90fd5b63d6bda27560e01b5f5260045ffd5b504763cf47918160e01b5f5260045260245260445ffd5b6040516323b872dd60e01b5f9081526001600160a01b039384166004529290931660245260449390935260209060648180865af19060015f5114821615612dff575b6040525f60605215612d075750565b906001811516612d3f57823b15153d15161690612df0565b5f5b815480821015612eaa5783612e2e8385612649565b90549060031b1c14612e435750600101612e19565b9192505f198201918211610a55576128c3612e61612e6f9385612649565b90549060031b1c9184612649565b80548015612e96575f190190612e858282612649565b8154905f199060031b1b1916905555565b634e487b7160e01b5f52603160045260245ffd5b5050505056fe9b779b17422d0df92223018b32b4d1fa46e071723d6817e2486d003becc55f00a2646970667358221220c106a449142c425056d30e2b99690675d513a805db52aac9e4fb1d93a6dd99e964736f6c634300081e0033","linkReferences":{}},"methodIdentifiers":{"ASSET_COMMODITY()":"6cf2c4d3","ASSET_ETF()":"e3fb6a72","ASSET_FX()":"6cca35c0","MAX_AGENTS_PER_USER()":"8d6d9855","MAX_POSITIONS_PER_MARKET()":"4f3173c5","PERSONALITY_AGGRESSIVE()":"77b44abd","PERSONALITY_BALANCED()":"1090d54c","PERSONALITY_CONSERVATIVE()":"1dc41b7f","PERSONALITY_CONTRARIAN()":"02f92a32","REFUND_GRACE_PERIOD()":"b6783ec2","activateAgent(uint256)":"d11257d0","agentPositionIds(uint256,uint256)":"42c712b8","agents(uint256)":"513856c8","cancelPosition(uint256)":"cd4e9ffa","claimRefund(uint256)":"5b7baf64","createAgent(string,string,uint8,address,uint256,uint256,uint8,uint8,bool)":"82f0fbc3","createMarket(uint256,uint256,bool,uint8,uint256)":"db871b61","deactivateAgent(uint256)":"11ba6b4a","delegateToAgentId(address)":"037819d2","fundAgent(uint256,uint256)":"dc290a76","getAgent(uint256)":"2de5aaf7","getAgentCount()":"91cab63e","getAgentPositionIds(uint256)":"ac263984","getMarket(uint256)":"eb44fdd3","getMarketCount()":"fd69f3c2","getMarketPositionIds(uint256)":"3343ce85","getOwnerAgentIds(address)":"7bdc43b0","getPosition(uint256)":"eb02c301","getUserPositionIds(address)":"eddf7570","marketPositionIds(uint256,uint256)":"4c42003f","markets(uint256)":"b1283e77","nextAgentId()":"30efc498","nextMarketId()":"406ef2ef","nextPositionId()":"899346c7","ownerAgentIds(address,uint256)":"b080e701","positions(uint256)":"99fbab88","resolveMarket(uint256,bool)":"57bde446","revealPosition(uint256,bool,bytes32)":"5ab7703e","submitPosition(uint256,bytes32,uint256)":"acbea675","submitPositionForAgent(uint256,uint256,bytes32,uint256)":"095d2dad","updateAgent(uint256,string,string,uint8,address,uint256,uint256,uint8,uint8,bool)":"6cd5c51d","usdc()":"3e413bee","userPositionIds(address,uint256)":"7b6eb9b6","withdrawFromAgent(uint256,uint256)":"2787a4c6"},"id":27}